{
  "_format": "hh-sol-artifact-1",
  "contractName": "JobContract",
  "sourceName": "contracts/JobContract.sol",
  "abi": [
    {
      "inputs": [],
      "stateMutability": "nonpayable",
      "type": "constructor"
    },
    {
      "inputs": [],
      "name": "AccessControlBadConfirmation",
      "type": "error"
    },
    {
      "inputs": [
        {
          "internalType": "address",
          "name": "account",
          "type": "address"
        },
        {
          "internalType": "bytes32",
          "name": "neededRole",
          "type": "bytes32"
        }
      ],
      "name": "AccessControlUnauthorizedAccount",
      "type": "error"
    },
    {
      "inputs": [],
      "name": "ReentrancyGuardReentrantCall",
      "type": "error"
    },
    {
      "anonymous": false,
      "inputs": [
        {
          "indexed": true,
          "internalType": "uint256",
          "name": "jobId",
          "type": "uint256"
        },
        {
          "indexed": true,
          "internalType": "address",
          "name": "applicant",
          "type": "address"
        },
        {
          "indexed": false,
          "internalType": "enum JobContract.ApplicationStatus",
          "name": "newStatus",
          "type": "uint8"
        }
      ],
      "name": "ApplicationStatusChanged",
      "type": "event"
    },
    {
      "anonymous": false,
      "inputs": [
        {
          "indexed": true,
          "internalType": "uint256",
          "name": "jobId",
          "type": "uint256"
        },
        {
          "indexed": true,
          "internalType": "address",
          "name": "applicant",
          "type": "address"
        }
      ],
      "name": "ApplicationSubmitted",
      "type": "event"
    },
    {
      "anonymous": false,
      "inputs": [
        {
          "indexed": true,
          "internalType": "uint256",
          "name": "id",
          "type": "uint256"
        },
        {
          "indexed": true,
          "internalType": "address",
          "name": "employer",
          "type": "address"
        },
        {
          "indexed": false,
          "internalType": "string",
          "name": "jobTitle",
          "type": "string"
        },
        {
          "indexed": false,
          "internalType": "uint256",
          "name": "budget",
          "type": "uint256"
        }
      ],
      "name": "JobCreated",
      "type": "event"
    },
    {
      "anonymous": false,
      "inputs": [
        {
          "indexed": true,
          "internalType": "uint256",
          "name": "id",
          "type": "uint256"
        },
        {
          "indexed": false,
          "internalType": "enum JobContract.JobStatus",
          "name": "newStatus",
          "type": "uint8"
        }
      ],
      "name": "JobStatusChanged",
      "type": "event"
    },
    {
      "anonymous": false,
      "inputs": [
        {
          "indexed": true,
          "internalType": "bytes32",
          "name": "role",
          "type": "bytes32"
        },
        {
          "indexed": true,
          "internalType": "bytes32",
          "name": "previousAdminRole",
          "type": "bytes32"
        },
        {
          "indexed": true,
          "internalType": "bytes32",
          "name": "newAdminRole",
          "type": "bytes32"
        }
      ],
      "name": "RoleAdminChanged",
      "type": "event"
    },
    {
      "anonymous": false,
      "inputs": [
        {
          "indexed": true,
          "internalType": "bytes32",
          "name": "role",
          "type": "bytes32"
        },
        {
          "indexed": true,
          "internalType": "address",
          "name": "account",
          "type": "address"
        },
        {
          "indexed": true,
          "internalType": "address",
          "name": "sender",
          "type": "address"
        }
      ],
      "name": "RoleGranted",
      "type": "event"
    },
    {
      "anonymous": false,
      "inputs": [
        {
          "indexed": true,
          "internalType": "bytes32",
          "name": "role",
          "type": "bytes32"
        },
        {
          "indexed": true,
          "internalType": "address",
          "name": "account",
          "type": "address"
        },
        {
          "indexed": true,
          "internalType": "address",
          "name": "sender",
          "type": "address"
        }
      ],
      "name": "RoleRevoked",
      "type": "event"
    },
    {
      "anonymous": false,
      "inputs": [
        {
          "indexed": false,
          "internalType": "uint256",
          "name": "newFeePercent",
          "type": "uint256"
        }
      ],
      "name": "ServiceFeeChanged",
      "type": "event"
    },
    {
      "inputs": [],
      "name": "ADMIN_ROLE",
      "outputs": [
        {
          "internalType": "bytes32",
          "name": "",
          "type": "bytes32"
        }
      ],
      "stateMutability": "view",
      "type": "function"
    },
    {
      "inputs": [],
      "name": "DEFAULT_ADMIN_ROLE",
      "outputs": [
        {
          "internalType": "bytes32",
          "name": "",
          "type": "bytes32"
        }
      ],
      "stateMutability": "view",
      "type": "function"
    },
    {
      "inputs": [],
      "name": "EMPLOYER_ROLE",
      "outputs": [
        {
          "internalType": "bytes32",
          "name": "",
          "type": "bytes32"
        }
      ],
      "stateMutability": "view",
      "type": "function"
    },
    {
      "inputs": [],
      "name": "JOB_MANAGER_ROLE",
      "outputs": [
        {
          "internalType": "bytes32",
          "name": "",
          "type": "bytes32"
        }
      ],
      "stateMutability": "view",
      "type": "function"
    },
    {
      "inputs": [
        {
          "internalType": "uint256",
          "name": "jobId",
          "type": "uint256"
        },
        {
          "internalType": "string",
          "name": "resumeIpfsCid",
          "type": "string"
        }
      ],
      "name": "applyForJob",
      "outputs": [],
      "stateMutability": "nonpayable",
      "type": "function"
    },
    {
      "inputs": [
        {
          "internalType": "uint256",
          "name": "jobId",
          "type": "uint256"
        },
        {
          "internalType": "enum JobContract.JobStatus",
          "name": "newStatus",
          "type": "uint8"
        }
      ],
      "name": "changeJobStatus",
      "outputs": [],
      "stateMutability": "nonpayable",
      "type": "function"
    },
    {
      "inputs": [
        {
          "internalType": "uint256",
          "name": "jobId",
          "type": "uint256"
        },
        {
          "internalType": "enum JobContract.JobStatus",
          "name": "newStatus",
          "type": "uint8"
        }
      ],
      "name": "changeJobStatusAsAdmin",
      "outputs": [],
      "stateMutability": "nonpayable",
      "type": "function"
    },
    {
      "inputs": [
        {
          "internalType": "string",
          "name": "organizationName",
          "type": "string"
        },
        {
          "internalType": "string",
          "name": "jobTitle",
          "type": "string"
        },
        {
          "internalType": "string",
          "name": "jobDescription",
          "type": "string"
        },
        {
          "internalType": "uint256",
          "name": "budget",
          "type": "uint256"
        },
        {
          "internalType": "enum JobContract.JobType",
          "name": "jobType",
          "type": "uint8"
        },
        {
          "internalType": "enum JobContract.WorkMode",
          "name": "workMode",
          "type": "uint8"
        },
        {
          "internalType": "uint256",
          "name": "deadline",
          "type": "uint256"
        },
        {
          "internalType": "string[]",
          "name": "categories",
          "type": "string[]"
        },
        {
          "internalType": "string",
          "name": "logoIpfsCid",
          "type": "string"
        }
      ],
      "name": "createJob",
      "outputs": [
        {
          "internalType": "uint256",
          "name": "",
          "type": "uint256"
        }
      ],
      "stateMutability": "nonpayable",
      "type": "function"
    },
    {
      "inputs": [],
      "name": "getAllJobs",
      "outputs": [
        {
          "components": [
            {
              "internalType": "uint256",
              "name": "id",
              "type": "uint256"
            },
            {
              "internalType": "address",
              "name": "employer",
              "type": "address"
            },
            {
              "internalType": "string",
              "name": "organizationName",
              "type": "string"
            },
            {
              "internalType": "string",
              "name": "jobTitle",
              "type": "string"
            },
            {
              "internalType": "string",
              "name": "jobDescription",
              "type": "string"
            },
            {
              "internalType": "uint256",
              "name": "budget",
              "type": "uint256"
            },
            {
              "internalType": "enum JobContract.JobStatus",
              "name": "status",
              "type": "uint8"
            },
            {
              "internalType": "enum JobContract.JobType",
              "name": "jobType",
              "type": "uint8"
            },
            {
              "internalType": "enum JobContract.WorkMode",
              "name": "workMode",
              "type": "uint8"
            },
            {
              "internalType": "uint256",
              "name": "deadline",
              "type": "uint256"
            },
            {
              "internalType": "string[]",
              "name": "categories",
              "type": "string[]"
            },
            {
              "internalType": "uint256",
              "name": "postedAt",
              "type": "uint256"
            },
            {
              "internalType": "string",
              "name": "logoIpfsCid",
              "type": "string"
            }
          ],
          "internalType": "struct JobContract.Job[]",
          "name": "",
          "type": "tuple[]"
        }
      ],
      "stateMutability": "view",
      "type": "function"
    },
    {
      "inputs": [
        {
          "internalType": "address",
          "name": "applicant",
          "type": "address"
        }
      ],
      "name": "getApplicationsForApplicant",
      "outputs": [
        {
          "components": [
            {
              "internalType": "uint256",
              "name": "jobId",
              "type": "uint256"
            },
            {
              "internalType": "address",
              "name": "applicant",
              "type": "address"
            },
            {
              "internalType": "enum JobContract.ApplicationStatus",
              "name": "status",
              "type": "uint8"
            },
            {
              "internalType": "string",
              "name": "resumeIpfsCid",
              "type": "string"
            }
          ],
          "internalType": "struct JobContract.Application[]",
          "name": "",
          "type": "tuple[]"
        }
      ],
      "stateMutability": "view",
      "type": "function"
    },
    {
      "inputs": [
        {
          "internalType": "uint256",
          "name": "jobId",
          "type": "uint256"
        }
      ],
      "name": "getApplicationsForJob",
      "outputs": [
        {
          "components": [
            {
              "internalType": "uint256",
              "name": "jobId",
              "type": "uint256"
            },
            {
              "internalType": "address",
              "name": "applicant",
              "type": "address"
            },
            {
              "internalType": "enum JobContract.ApplicationStatus",
              "name": "status",
              "type": "uint8"
            },
            {
              "internalType": "string",
              "name": "resumeIpfsCid",
              "type": "string"
            }
          ],
          "internalType": "struct JobContract.Application[]",
          "name": "",
          "type": "tuple[]"
        }
      ],
      "stateMutability": "view",
      "type": "function"
    },
    {
      "inputs": [
        {
          "internalType": "bytes32",
          "name": "role",
          "type": "bytes32"
        }
      ],
      "name": "getRoleAdmin",
      "outputs": [
        {
          "internalType": "bytes32",
          "name": "",
          "type": "bytes32"
        }
      ],
      "stateMutability": "view",
      "type": "function"
    },
    {
      "inputs": [
        {
          "internalType": "bytes32",
          "name": "role",
          "type": "bytes32"
        },
        {
          "internalType": "address",
          "name": "account",
          "type": "address"
        }
      ],
      "name": "grantRole",
      "outputs": [],
      "stateMutability": "nonpayable",
      "type": "function"
    },
    {
      "inputs": [
        {
          "internalType": "bytes32",
          "name": "role",
          "type": "bytes32"
        },
        {
          "internalType": "address",
          "name": "account",
          "type": "address"
        }
      ],
      "name": "hasRole",
      "outputs": [
        {
          "internalType": "bool",
          "name": "",
          "type": "bool"
        }
      ],
      "stateMutability": "view",
      "type": "function"
    },
    {
      "inputs": [
        {
          "internalType": "uint256",
          "name": "",
          "type": "uint256"
        }
      ],
      "name": "jobs",
      "outputs": [
        {
          "internalType": "uint256",
          "name": "id",
          "type": "uint256"
        },
        {
          "internalType": "address",
          "name": "employer",
          "type": "address"
        },
        {
          "internalType": "string",
          "name": "organizationName",
          "type": "string"
        },
        {
          "internalType": "string",
          "name": "jobTitle",
          "type": "string"
        },
        {
          "internalType": "string",
          "name": "jobDescription",
          "type": "string"
        },
        {
          "internalType": "uint256",
          "name": "budget",
          "type": "uint256"
        },
        {
          "internalType": "enum JobContract.JobStatus",
          "name": "status",
          "type": "uint8"
        },
        {
          "internalType": "enum JobContract.JobType",
          "name": "jobType",
          "type": "uint8"
        },
        {
          "internalType": "enum JobContract.WorkMode",
          "name": "workMode",
          "type": "uint8"
        },
        {
          "internalType": "uint256",
          "name": "deadline",
          "type": "uint256"
        },
        {
          "internalType": "uint256",
          "name": "postedAt",
          "type": "uint256"
        },
        {
          "internalType": "string",
          "name": "logoIpfsCid",
          "type": "string"
        }
      ],
      "stateMutability": "view",
      "type": "function"
    },
    {
      "inputs": [
        {
          "internalType": "bytes32",
          "name": "role",
          "type": "bytes32"
        },
        {
          "internalType": "address",
          "name": "callerConfirmation",
          "type": "address"
        }
      ],
      "name": "renounceRole",
      "outputs": [],
      "stateMutability": "nonpayable",
      "type": "function"
    },
    {
      "inputs": [
        {
          "internalType": "bytes32",
          "name": "role",
          "type": "bytes32"
        },
        {
          "internalType": "address",
          "name": "account",
          "type": "address"
        }
      ],
      "name": "revokeRole",
      "outputs": [],
      "stateMutability": "nonpayable",
      "type": "function"
    },
    {
      "inputs": [],
      "name": "serviceFeePercent",
      "outputs": [
        {
          "internalType": "uint256",
          "name": "",
          "type": "uint256"
        }
      ],
      "stateMutability": "view",
      "type": "function"
    },
    {
      "inputs": [
        {
          "internalType": "uint256",
          "name": "_newFeePercent",
          "type": "uint256"
        }
      ],
      "name": "setServiceFee",
      "outputs": [],
      "stateMutability": "nonpayable",
      "type": "function"
    },
    {
      "inputs": [
        {
          "internalType": "bytes4",
          "name": "interfaceId",
          "type": "bytes4"
        }
      ],
      "name": "supportsInterface",
      "outputs": [
        {
          "internalType": "bool",
          "name": "",
          "type": "bool"
        }
      ],
      "stateMutability": "view",
      "type": "function"
    },
    {
      "inputs": [
        {
          "internalType": "uint256",
          "name": "jobId",
          "type": "uint256"
        },
        {
          "internalType": "address",
          "name": "applicant",
          "type": "address"
        },
        {
          "internalType": "enum JobContract.ApplicationStatus",
          "name": "newStatus",
          "type": "uint8"
        }
      ],
      "name": "updateApplicationStatus",
      "outputs": [],
      "stateMutability": "nonpayable",
      "type": "function"
    },
    {
      "inputs": [
        {
          "internalType": "uint256",
          "name": "jobId",
          "type": "uint256"
        },
        {
          "internalType": "address",
          "name": "applicant",
          "type": "address"
        },
        {
          "internalType": "enum JobContract.ApplicationStatus",
          "name": "newStatus",
          "type": "uint8"
        }
      ],
      "name": "updateApplicationStatusAsAdmin",
      "outputs": [],
      "stateMutability": "nonpayable",
      "type": "function"
    },
    {
      "inputs": [],
      "name": "withdrawFunds",
      "outputs": [],
      "stateMutability": "nonpayable",
      "type": "function"
    }
  ],
  "bytecode": "0x6080604052600160065534801561001557600080fd5b5060018081905550600073a5e03a33a0e795154ebbef97d6c968328c572db190506100496000801b3361018a60201b60201c565b5061007a7fa49807205ce4d355092ef5a8a18f56e8913cf4a201fbe287825b095693c217753361018a60201b60201c565b506100ab7ffc7c36207174f786648d2e624616a4b40e15fd7f0268b4e36af5057f0c43c8353361018a60201b60201c565b506100dc7f9314fad2def8e56f9df1fa7f30dc3dafd695603f8f7676a295739a12b879d2f63361018a60201b60201c565b506100f06000801b8261018a60201b60201c565b506101217fa49807205ce4d355092ef5a8a18f56e8913cf4a201fbe287825b095693c217758261018a60201b60201c565b506101527ffc7c36207174f786648d2e624616a4b40e15fd7f0268b4e36af5057f0c43c8358261018a60201b60201c565b506101837f9314fad2def8e56f9df1fa7f30dc3dafd695603f8f7676a295739a12b879d2f68261018a60201b60201c565b50506102f9565b600061019c838361028760201b60201c565b61027c57600160008085815260200190815260200160002060000160008473ffffffffffffffffffffffffffffffffffffffff1673ffffffffffffffffffffffffffffffffffffffff16815260200190815260200160002060006101000a81548160ff0219169083151502179055506102196102f160201b60201c565b73ffffffffffffffffffffffffffffffffffffffff168273ffffffffffffffffffffffffffffffffffffffff16847f2f8788117e7eff1d82e926ec794901d17c78024a50270940304540a733656f0d60405160405180910390a460019050610281565b600090505b92915050565b600080600084815260200190815260200160002060000160008373ffffffffffffffffffffffffffffffffffffffff1673ffffffffffffffffffffffffffffffffffffffff16815260200190815260200160002060009054906101000a900460ff16905092915050565b600033905090565b6144f3806103086000396000f3fe608060405234801561001057600080fd5b506004361061014d5760003560e01c80635cdf76f8116100c357806391d148541161007c57806391d1485414610391578063965a79fb146103c1578063995bc51e146103df578063a217fddf146103fd578063aaac0d7c1461041b578063d547741f1461044b5761014d565b80635cdf76f8146102e55780636c09a5e314610301578063742e18bc1461031d57806375b238fc146103395780637eaa7fa31461035757806380d82d55146103735761014d565b8063248a9ca311610115578063248a9ca3146102015780632f2ff15d1461023157806336568abe1461024d578063393cef06146102695780634d91e57d146102995780635c3c9030146102c95761014d565b806301ffc9a71461015257806315248bb714610182578063180aedf31461019e5780632426bb38146101d957806324600fc3146101f7575b600080fd5b61016c60048036038101906101679190612bd4565b610467565b6040516101799190612c1c565b60405180910390f35b61019c60048036038101906101979190612cf0565b610479565b005b6101b860048036038101906101b39190612d43565b6108af565b6040516101d09c9b9a99989796959493929190612f25565b60405180910390f35b6101e1610b76565b6040516101ee9190613014565b60405180910390f35b6101ff610b9a565b005b61021b6004803603810190610216919061305b565b610ccd565b6040516102289190613014565b60405180910390f35b61024b60048036038101906102469190613088565b610cec565b005b61026760048036038101906102629190613088565b610d0e565b005b610283600480360381019061027e91906130c8565b610d89565b60405161029091906132ca565b60405180910390f35b6102b360048036038101906102ae9190612d43565b610ff3565b6040516102c091906132ca565b60405180910390f35b6102e360048036038101906102de9190612cf0565b611267565b005b6102ff60048036038101906102fa9190612d43565b6115f3565b005b61031b60048036038101906103169190613421565b6116a3565b005b610337600480360381019061033291906134a2565b611a99565b005b610341611b97565b60405161034e9190613014565b60405180910390f35b610371600480360381019061036c91906134a2565b611bbb565b005b61037b611d63565b6040516103889190613014565b60405180910390f35b6103ab60048036038101906103a69190613088565b611d87565b6040516103b89190612c1c565b60405180910390f35b6103c9611df1565b6040516103d691906137c8565b60405180910390f35b6103e7612315565b6040516103f491906137ea565b60405180910390f35b61040561231b565b6040516104129190613014565b60405180910390f35b61043560048036038101906104309190613935565b612322565b60405161044291906137ea565b60405180910390f35b61046560048036038101906104609190613088565b612635565b005b600061047282612657565b9050919050565b60006003600085815260200190815260200160002060000154036104d2576040517f08c379a00000000000000000000000000000000000000000000000000000000081526004016104c990613ad7565b60405180910390fd5b3373ffffffffffffffffffffffffffffffffffffffff166003600085815260200190815260200160002060010160009054906101000a900473ffffffffffffffffffffffffffffffffffffffff1673ffffffffffffffffffffffffffffffffffffffff16148061056857506105677fa49807205ce4d355092ef5a8a18f56e8913cf4a201fbe287825b095693c2177533611d87565b5b6105a7576040517f08c379a000000000000000000000000000000000000000000000000000000000815260040161059e90613b69565b60405180910390fd5b6000805b60046000868152602001908152602001600020805490508110156106c6578373ffffffffffffffffffffffffffffffffffffffff1660046000878152602001908152602001600020828154811061060557610604613b89565b5b906000526020600020906003020160010160009054906101000a900473ffffffffffffffffffffffffffffffffffffffff1673ffffffffffffffffffffffffffffffffffffffff16036106b9578260046000878152602001908152602001600020828154811061067857610677613b89565b5b906000526020600020906003020160010160146101000a81548160ff021916908360038111156106ab576106aa612e1e565b5b0217905550600191506106c6565b80806001019150506105ab565b5080610707576040517f08c379a00000000000000000000000000000000000000000000000000000000081526004016106fe90613c2a565b60405180910390fd5b60005b600560008573ffffffffffffffffffffffffffffffffffffffff1673ffffffffffffffffffffffffffffffffffffffff168152602001908152602001600020805490508110156108595784600560008673ffffffffffffffffffffffffffffffffffffffff1673ffffffffffffffffffffffffffffffffffffffff16815260200190815260200160002082815481106107a6576107a5613b89565b5b9060005260206000209060030201600001540361084c5782600560008673ffffffffffffffffffffffffffffffffffffffff1673ffffffffffffffffffffffffffffffffffffffff168152602001908152602001600020828154811061080f5761080e613b89565b5b906000526020600020906003020160010160146101000a81548160ff0219169083600381111561084257610841612e1e565b5b0217905550610859565b808060010191505061070a565b508273ffffffffffffffffffffffffffffffffffffffff16847f05dcc1b13a4200fb6b8570df99308bf268e73dc5be0eb720e8cf98e02d35f730846040516108a19190613c59565b60405180910390a350505050565b60036020528060005260406000206000915090508060000154908060010160009054906101000a900473ffffffffffffffffffffffffffffffffffffffff16908060020180546108fe90613ca3565b80601f016020809104026020016040519081016040528092919081815260200182805461092a90613ca3565b80156109775780601f1061094c57610100808354040283529160200191610977565b820191906000526020600020905b81548152906001019060200180831161095a57829003601f168201915b50505050509080600301805461098c90613ca3565b80601f01602080910402602001604051908101604052809291908181526020018280546109b890613ca3565b8015610a055780601f106109da57610100808354040283529160200191610a05565b820191906000526020600020905b8154815290600101906020018083116109e857829003601f168201915b505050505090806004018054610a1a90613ca3565b80601f0160208091040260200160405190810160405280929190818152602001828054610a4690613ca3565b8015610a935780601f10610a6857610100808354040283529160200191610a93565b820191906000526020600020905b815481529060010190602001808311610a7657829003601f168201915b5050505050908060050154908060060160009054906101000a900460ff16908060060160019054906101000a900460ff16908060060160029054906101000a900460ff169080600701549080600901549080600a018054610af390613ca3565b80601f0160208091040260200160405190810160405280929190818152602001828054610b1f90613ca3565b8015610b6c5780601f10610b4157610100808354040283529160200191610b6c565b820191906000526020600020905b815481529060010190602001808311610b4f57829003601f168201915b505050505090508c565b7ffc7c36207174f786648d2e624616a4b40e15fd7f0268b4e36af5057f0c43c83581565b7fa49807205ce4d355092ef5a8a18f56e8913cf4a201fbe287825b095693c21775610bc4816126d1565b610bcc6126e5565b600047905060008111610c14576040517f08c379a0000000000000000000000000000000000000000000000000000000008152600401610c0b90613d20565b60405180910390fd5b60003373ffffffffffffffffffffffffffffffffffffffff1682604051610c3a90613d71565b60006040518083038185875af1925050503d8060008114610c77576040519150601f19603f3d011682016040523d82523d6000602084013e610c7c565b606091505b5050905080610cc0576040517f08c379a0000000000000000000000000000000000000000000000000000000008152600401610cb790613dd2565b60405180910390fd5b5050610cca61272b565b50565b6000806000838152602001908152602001600020600101549050919050565b610cf582610ccd565b610cfe816126d1565b610d088383612734565b50505050565b610d16612825565b73ffffffffffffffffffffffffffffffffffffffff168173ffffffffffffffffffffffffffffffffffffffff1614610d7a576040517f6697b23200000000000000000000000000000000000000000000000000000000815260040160405180910390fd5b610d84828261282d565b505050565b60603373ffffffffffffffffffffffffffffffffffffffff168273ffffffffffffffffffffffffffffffffffffffff161480610deb5750610dea7fa49807205ce4d355092ef5a8a18f56e8913cf4a201fbe287825b095693c2177533611d87565b5b610e2a576040517f08c379a0000000000000000000000000000000000000000000000000000000008152600401610e2190613e64565b60405180910390fd5b600560008373ffffffffffffffffffffffffffffffffffffffff1673ffffffffffffffffffffffffffffffffffffffff168152602001908152602001600020805480602002602001604051908101604052809291908181526020016000905b82821015610fe85783829060005260206000209060030201604051806080016040529081600082015481526020016001820160009054906101000a900473ffffffffffffffffffffffffffffffffffffffff1673ffffffffffffffffffffffffffffffffffffffff1673ffffffffffffffffffffffffffffffffffffffff1681526020016001820160149054906101000a900460ff166003811115610f3157610f30612e1e565b5b6003811115610f4357610f42612e1e565b5b8152602001600282018054610f5790613ca3565b80601f0160208091040260200160405190810160405280929190818152602001828054610f8390613ca3565b8015610fd05780601f10610fa557610100808354040283529160200191610fd0565b820191906000526020600020905b815481529060010190602001808311610fb357829003601f168201915b50505050508152505081526020019060010190610e89565b505050509050919050565b60603373ffffffffffffffffffffffffffffffffffffffff166003600084815260200190815260200160002060010160009054906101000a900473ffffffffffffffffffffffffffffffffffffffff1673ffffffffffffffffffffffffffffffffffffffff16148061108b575061108a7fa49807205ce4d355092ef5a8a18f56e8913cf4a201fbe287825b095693c2177533611d87565b5b6110ca576040517f08c379a00000000000000000000000000000000000000000000000000000000081526004016110c190613ef6565b60405180910390fd5b60046000838152602001908152602001600020805480602002602001604051908101604052809291908181526020016000905b8282101561125c5783829060005260206000209060030201604051806080016040529081600082015481526020016001820160009054906101000a900473ffffffffffffffffffffffffffffffffffffffff1673ffffffffffffffffffffffffffffffffffffffff1673ffffffffffffffffffffffffffffffffffffffff1681526020016001820160149054906101000a900460ff1660038111156111a5576111a4612e1e565b5b60038111156111b7576111b6612e1e565b5b81526020016002820180546111cb90613ca3565b80601f01602080910402602001604051908101604052809291908181526020018280546111f790613ca3565b80156112445780601f1061121957610100808354040283529160200191611244565b820191906000526020600020905b81548152906001019060200180831161122757829003601f168201915b505050505081525050815260200190600101906110fd565b505050509050919050565b7fa49807205ce4d355092ef5a8a18f56e8913cf4a201fbe287825b095693c21775611291816126d1565b60006003600086815260200190815260200160002060000154036112ea576040517f08c379a00000000000000000000000000000000000000000000000000000000081526004016112e190613ad7565b60405180910390fd5b6000805b6004600087815260200190815260200160002080549050811015611409578473ffffffffffffffffffffffffffffffffffffffff1660046000888152602001908152602001600020828154811061134857611347613b89565b5b906000526020600020906003020160010160009054906101000a900473ffffffffffffffffffffffffffffffffffffffff1673ffffffffffffffffffffffffffffffffffffffff16036113fc57836004600088815260200190815260200160002082815481106113bb576113ba613b89565b5b906000526020600020906003020160010160146101000a81548160ff021916908360038111156113ee576113ed612e1e565b5b021790555060019150611409565b80806001019150506112ee565b508061144a576040517f08c379a000000000000000000000000000000000000000000000000000000000815260040161144190613c2a565b60405180910390fd5b60005b600560008673ffffffffffffffffffffffffffffffffffffffff1673ffffffffffffffffffffffffffffffffffffffff1681526020019081526020016000208054905081101561159c5785600560008773ffffffffffffffffffffffffffffffffffffffff1673ffffffffffffffffffffffffffffffffffffffff16815260200190815260200160002082815481106114e9576114e8613b89565b5b9060005260206000209060030201600001540361158f5783600560008773ffffffffffffffffffffffffffffffffffffffff1673ffffffffffffffffffffffffffffffffffffffff168152602001908152602001600020828154811061155257611551613b89565b5b906000526020600020906003020160010160146101000a81548160ff0219169083600381111561158557611584612e1e565b5b021790555061159c565b808060010191505061144d565b508373ffffffffffffffffffffffffffffffffffffffff16857f05dcc1b13a4200fb6b8570df99308bf268e73dc5be0eb720e8cf98e02d35f730856040516115e49190613c59565b60405180910390a35050505050565b7fa49807205ce4d355092ef5a8a18f56e8913cf4a201fbe287825b095693c2177561161d816126d1565b6064821115611661576040517f08c379a000000000000000000000000000000000000000000000000000000000815260040161165890613f62565b60405180910390fd5b816006819055507f1c068decb3b5138b265d62b22c4c2d8191a2e0bd3745e97b5b0ff66fa852eca58260405161169791906137ea565b60405180910390a15050565b60006003600084815260200190815260200160002060000154036116fc576040517f08c379a00000000000000000000000000000000000000000000000000000000081526004016116f390613ad7565b60405180910390fd5b600060048111156117105761170f612e1e565b5b6003600084815260200190815260200160002060060160009054906101000a900460ff16600481111561174657611745612e1e565b5b14611786576040517f08c379a000000000000000000000000000000000000000000000000000000000815260040161177d90613fce565b60405180910390fd5b3373ffffffffffffffffffffffffffffffffffffffff166003600084815260200190815260200160002060010160009054906101000a900473ffffffffffffffffffffffffffffffffffffffff1673ffffffffffffffffffffffffffffffffffffffff160361182a576040517f08c379a000000000000000000000000000000000000000000000000000000000815260040161182190614060565b60405180910390fd5b600060405180608001604052808481526020013373ffffffffffffffffffffffffffffffffffffffff1681526020016000600381111561186d5761186c612e1e565b5b8152602001838152509050600460008481526020019081526020016000208190806001815401808255809150506001900390600052602060002090600302016000909190919091506000820151816000015560208201518160010160006101000a81548173ffffffffffffffffffffffffffffffffffffffff021916908373ffffffffffffffffffffffffffffffffffffffff16021790555060408201518160010160146101000a81548160ff0219169083600381111561193157611930612e1e565b5b0217905550606082015181600201908161194b919061422c565b505050600560003373ffffffffffffffffffffffffffffffffffffffff1673ffffffffffffffffffffffffffffffffffffffff1681526020019081526020016000208190806001815401808255809150506001900390600052602060002090600302016000909190919091506000820151816000015560208201518160010160006101000a81548173ffffffffffffffffffffffffffffffffffffffff021916908373ffffffffffffffffffffffffffffffffffffffff16021790555060408201518160010160146101000a81548160ff02191690836003811115611a3357611a32612e1e565b5b02179055506060820151816002019081611a4d919061422c565b5050503373ffffffffffffffffffffffffffffffffffffffff16837f394b2f46e841d2b670718e98a15dfb76853abc5a8761449c74e9cba62d90152160405160405180910390a3505050565b7fa49807205ce4d355092ef5a8a18f56e8913cf4a201fbe287825b095693c21775611ac3816126d1565b6000600360008581526020019081526020016000206000015403611b1c576040517f08c379a0000000000000000000000000000000000000000000000000000000008152600401611b1390613ad7565b60405180910390fd5b816003600085815260200190815260200160002060060160006101000a81548160ff02191690836004811115611b5557611b54612e1e565b5b0217905550827fe07406c2d47c288b7848daae7d2d0d996d3d253c42da681a9afb7cbeda00ef2983604051611b8a91906142fe565b60405180910390a2505050565b7fa49807205ce4d355092ef5a8a18f56e8913cf4a201fbe287825b095693c2177581565b6000600360008481526020019081526020016000206000015403611c14576040517f08c379a0000000000000000000000000000000000000000000000000000000008152600401611c0b90613ad7565b60405180910390fd5b3373ffffffffffffffffffffffffffffffffffffffff166003600084815260200190815260200160002060010160009054906101000a900473ffffffffffffffffffffffffffffffffffffffff1673ffffffffffffffffffffffffffffffffffffffff161480611caa5750611ca97fa49807205ce4d355092ef5a8a18f56e8913cf4a201fbe287825b095693c2177533611d87565b5b611ce9576040517f08c379a0000000000000000000000000000000000000000000000000000000008152600401611ce090614365565b60405180910390fd5b806003600084815260200190815260200160002060060160006101000a81548160ff02191690836004811115611d2257611d21612e1e565b5b0217905550817fe07406c2d47c288b7848daae7d2d0d996d3d253c42da681a9afb7cbeda00ef2982604051611d5791906142fe565b60405180910390a25050565b7f9314fad2def8e56f9df1fa7f30dc3dafd695603f8f7676a295739a12b879d2f681565b600080600084815260200190815260200160002060000160008373ffffffffffffffffffffffffffffffffffffffff1673ffffffffffffffffffffffffffffffffffffffff16815260200190815260200160002060009054906101000a900460ff16905092915050565b60606000600254905060008167ffffffffffffffff811115611e1657611e156132f6565b5b604051908082528060200260200182016040528015611e4f57816020015b611e3c6129da565b815260200190600190039081611e345790505b5090506000600190505b82811161230c5760036000828152602001908152602001600020604051806101a0016040529081600082015481526020016001820160009054906101000a900473ffffffffffffffffffffffffffffffffffffffff1673ffffffffffffffffffffffffffffffffffffffff1673ffffffffffffffffffffffffffffffffffffffff168152602001600282018054611eef90613ca3565b80601f0160208091040260200160405190810160405280929190818152602001828054611f1b90613ca3565b8015611f685780601f10611f3d57610100808354040283529160200191611f68565b820191906000526020600020905b815481529060010190602001808311611f4b57829003601f168201915b50505050508152602001600382018054611f8190613ca3565b80601f0160208091040260200160405190810160405280929190818152602001828054611fad90613ca3565b8015611ffa5780601f10611fcf57610100808354040283529160200191611ffa565b820191906000526020600020905b815481529060010190602001808311611fdd57829003601f168201915b5050505050815260200160048201805461201390613ca3565b80601f016020809104026020016040519081016040528092919081815260200182805461203f90613ca3565b801561208c5780601f106120615761010080835404028352916020019161208c565b820191906000526020600020905b81548152906001019060200180831161206f57829003601f168201915b50505050508152602001600582015481526020016006820160009054906101000a900460ff1660048111156120c4576120c3612e1e565b5b60048111156120d6576120d5612e1e565b5b81526020016006820160019054906101000a900460ff1660048111156120ff576120fe612e1e565b5b600481111561211157612110612e1e565b5b81526020016006820160029054906101000a900460ff16600281111561213a57612139612e1e565b5b600281111561214c5761214b612e1e565b5b81526020016007820154815260200160088201805480602002602001604051908101604052809291908181526020016000905b8282101561222b57838290600052602060002001805461219e90613ca3565b80601f01602080910402602001604051908101604052809291908181526020018280546121ca90613ca3565b80156122175780601f106121ec57610100808354040283529160200191612217565b820191906000526020600020905b8154815290600101906020018083116121fa57829003601f168201915b50505050508152602001906001019061217f565b50505050815260200160098201548152602001600a8201805461224d90613ca3565b80601f016020809104026020016040519081016040528092919081815260200182805461227990613ca3565b80156122c65780601f1061229b576101008083540402835291602001916122c6565b820191906000526020600020905b8154815290600101906020018083116122a957829003601f168201915b505050505081525050826001836122dd91906143b4565b815181106122ee576122ed613b89565b5b60200260200101819052508080612304906143e8565b915050611e59565b50809250505090565b60065481565b6000801b81565b60006001600260008282546123379190614430565b9250508190555060006002549050604051806101a001604052808281526020013373ffffffffffffffffffffffffffffffffffffffff1681526020018c81526020018b81526020018a81526020018981526020016000600481111561239f5761239e612e1e565b5b81526020018860048111156123b7576123b6612e1e565b5b81526020018760028111156123cf576123ce612e1e565b5b815260200186815260200185815260200142815260200184815250600360008381526020019081526020016000206000820151816000015560208201518160010160006101000a81548173ffffffffffffffffffffffffffffffffffffffff021916908373ffffffffffffffffffffffffffffffffffffffff1602179055506040820151816002019081612463919061422c565b506060820151816003019081612479919061422c565b50608082015181600401908161248f919061422c565b5060a0820151816005015560c08201518160060160006101000a81548160ff021916908360048111156124c5576124c4612e1e565b5b021790555060e08201518160060160016101000a81548160ff021916908360048111156124f5576124f4612e1e565b5b02179055506101008201518160060160026101000a81548160ff0219169083600281111561252657612525612e1e565b5b02179055506101208201518160070155610140820151816008019080519060200190612553929190612a8e565b50610160820151816009015561018082015181600a019081612575919061422c565b509050506125a37ffc7c36207174f786648d2e624616a4b40e15fd7f0268b4e36af5057f0c43c83533611d87565b6125d3576125d17ffc7c36207174f786648d2e624616a4b40e15fd7f0268b4e36af5057f0c43c83533612734565b505b3373ffffffffffffffffffffffffffffffffffffffff16817fe2664ff85acbefce4793e83fe4a10e88680b3172a3e401c7946d7cfb8f19ebdb8c8b60405161261c929190614464565b60405180910390a3809150509998505050505050505050565b61263e82610ccd565b612647816126d1565b612651838361282d565b50505050565b60007f7965db0b000000000000000000000000000000000000000000000000000000007bffffffffffffffffffffffffffffffffffffffffffffffffffffffff1916827bffffffffffffffffffffffffffffffffffffffffffffffffffffffff191614806126ca57506126c98261291f565b5b9050919050565b6126e2816126dd612825565b612989565b50565b600260015403612721576040517f3ee5aeb500000000000000000000000000000000000000000000000000000000815260040160405180910390fd5b6002600181905550565b60018081905550565b60006127408383611d87565b61281a57600160008085815260200190815260200160002060000160008473ffffffffffffffffffffffffffffffffffffffff1673ffffffffffffffffffffffffffffffffffffffff16815260200190815260200160002060006101000a81548160ff0219169083151502179055506127b7612825565b73ffffffffffffffffffffffffffffffffffffffff168273ffffffffffffffffffffffffffffffffffffffff16847f2f8788117e7eff1d82e926ec794901d17c78024a50270940304540a733656f0d60405160405180910390a46001905061281f565b600090505b92915050565b600033905090565b60006128398383611d87565b1561291457600080600085815260200190815260200160002060000160008473ffffffffffffffffffffffffffffffffffffffff1673ffffffffffffffffffffffffffffffffffffffff16815260200190815260200160002060006101000a81548160ff0219169083151502179055506128b1612825565b73ffffffffffffffffffffffffffffffffffffffff168273ffffffffffffffffffffffffffffffffffffffff16847ff6391f5c32d9c69d2a47ea670b442974b53935d1edc7fd64eb21e047a839171b60405160405180910390a460019050612919565b600090505b92915050565b60007f01ffc9a7000000000000000000000000000000000000000000000000000000007bffffffffffffffffffffffffffffffffffffffffffffffffffffffff1916827bffffffffffffffffffffffffffffffffffffffffffffffffffffffff1916149050919050565b6129938282611d87565b6129d65780826040517fe2517d3f0000000000000000000000000000000000000000000000000000000081526004016129cd929190614494565b60405180910390fd5b5050565b604051806101a0016040528060008152602001600073ffffffffffffffffffffffffffffffffffffffff1681526020016060815260200160608152602001606081526020016000815260200160006004811115612a3a57612a39612e1e565b5b815260200160006004811115612a5357612a52612e1e565b5b815260200160006002811115612a6c57612a6b612e1e565b5b8152602001600081526020016060815260200160008152602001606081525090565b828054828255906000526020600020908101928215612ad6579160200282015b82811115612ad5578251829081612ac5919061422c565b5091602001919060010190612aae565b5b509050612ae39190612ae7565b5090565b5b80821115612b075760008181612afe9190612b0b565b50600101612ae8565b5090565b508054612b1790613ca3565b6000825580601f10612b295750612b48565b601f016020900490600052602060002090810190612b479190612b4b565b5b50565b5b80821115612b64576000816000905550600101612b4c565b5090565b6000604051905090565b600080fd5b600080fd5b60007fffffffff0000000000000000000000000000000000000000000000000000000082169050919050565b612bb181612b7c565b8114612bbc57600080fd5b50565b600081359050612bce81612ba8565b92915050565b600060208284031215612bea57612be9612b72565b5b6000612bf884828501612bbf565b91505092915050565b60008115159050919050565b612c1681612c01565b82525050565b6000602082019050612c316000830184612c0d565b92915050565b6000819050919050565b612c4a81612c37565b8114612c5557600080fd5b50565b600081359050612c6781612c41565b92915050565b600073ffffffffffffffffffffffffffffffffffffffff82169050919050565b6000612c9882612c6d565b9050919050565b612ca881612c8d565b8114612cb357600080fd5b50565b600081359050612cc581612c9f565b92915050565b60048110612cd857600080fd5b50565b600081359050612cea81612ccb565b92915050565b600080600060608486031215612d0957612d08612b72565b5b6000612d1786828701612c58565b9350506020612d2886828701612cb6565b9250506040612d3986828701612cdb565b9150509250925092565b600060208284031215612d5957612d58612b72565b5b6000612d6784828501612c58565b91505092915050565b612d7981612c37565b82525050565b612d8881612c8d565b82525050565b600081519050919050565b600082825260208201905092915050565b60005b83811015612dc8578082015181840152602081019050612dad565b60008484015250505050565b6000601f19601f8301169050919050565b6000612df082612d8e565b612dfa8185612d99565b9350612e0a818560208601612daa565b612e1381612dd4565b840191505092915050565b7f4e487b7100000000000000000000000000000000000000000000000000000000600052602160045260246000fd5b60058110612e5e57612e5d612e1e565b5b50565b6000819050612e6f82612e4d565b919050565b6000612e7f82612e61565b9050919050565b612e8f81612e74565b82525050565b60058110612ea657612ea5612e1e565b5b50565b6000819050612eb782612e95565b919050565b6000612ec782612ea9565b9050919050565b612ed781612ebc565b82525050565b60038110612eee57612eed612e1e565b5b50565b6000819050612eff82612edd565b919050565b6000612f0f82612ef1565b9050919050565b612f1f81612f04565b82525050565b600061018082019050612f3b600083018f612d70565b612f48602083018e612d7f565b8181036040830152612f5a818d612de5565b90508181036060830152612f6e818c612de5565b90508181036080830152612f82818b612de5565b9050612f9160a083018a612d70565b612f9e60c0830189612e86565b612fab60e0830188612ece565b612fb9610100830187612f16565b612fc7610120830186612d70565b612fd5610140830185612d70565b818103610160830152612fe88184612de5565b90509d9c50505050505050505050505050565b6000819050919050565b61300e81612ffb565b82525050565b60006020820190506130296000830184613005565b92915050565b61303881612ffb565b811461304357600080fd5b50565b6000813590506130558161302f565b92915050565b60006020828403121561307157613070612b72565b5b600061307f84828501613046565b91505092915050565b6000806040838503121561309f5761309e612b72565b5b60006130ad85828601613046565b92505060206130be85828601612cb6565b9150509250929050565b6000602082840312156130de576130dd612b72565b5b60006130ec84828501612cb6565b91505092915050565b600081519050919050565b600082825260208201905092915050565b6000819050602082019050919050565b61312a81612c37565b82525050565b61313981612c8d565b82525050565b600481106131505761314f612e1e565b5b50565b60008190506131618261313f565b919050565b600061317182613153565b9050919050565b61318181613166565b82525050565b600082825260208201905092915050565b60006131a382612d8e565b6131ad8185613187565b93506131bd818560208601612daa565b6131c681612dd4565b840191505092915050565b60006080830160008301516131e96000860182613121565b5060208301516131fc6020860182613130565b50604083015161320f6040860182613178565b50606083015184820360608601526132278282613198565b9150508091505092915050565b600061324083836131d1565b905092915050565b6000602082019050919050565b6000613260826130f5565b61326a8185613100565b93508360208202850161327c85613111565b8060005b858110156132b857848403895281516132998582613234565b94506132a483613248565b925060208a01995050600181019050613280565b50829750879550505050505092915050565b600060208201905081810360008301526132e48184613255565b905092915050565b600080fd5b600080fd5b7f4e487b7100000000000000000000000000000000000000000000000000000000600052604160045260246000fd5b61332e82612dd4565b810181811067ffffffffffffffff8211171561334d5761334c6132f6565b5b80604052505050565b6000613360612b68565b905061336c8282613325565b919050565b600067ffffffffffffffff82111561338c5761338b6132f6565b5b61339582612dd4565b9050602081019050919050565b82818337600083830152505050565b60006133c46133bf84613371565b613356565b9050828152602081018484840111156133e0576133df6132f1565b5b6133eb8482856133a2565b509392505050565b600082601f830112613408576134076132ec565b5b81356134188482602086016133b1565b91505092915050565b6000806040838503121561343857613437612b72565b5b600061344685828601612c58565b925050602083013567ffffffffffffffff81111561346757613466612b77565b5b613473858286016133f3565b9150509250929050565b6005811061348a57600080fd5b50565b60008135905061349c8161347d565b92915050565b600080604083850312156134b9576134b8612b72565b5b60006134c785828601612c58565b92505060206134d88582860161348d565b9150509250929050565b600081519050919050565b600082825260208201905092915050565b6000819050602082019050919050565b61351781612e74565b82525050565b61352681612ebc565b82525050565b61353581612f04565b82525050565b600081519050919050565b600082825260208201905092915050565b6000819050602082019050919050565b60006135738383613198565b905092915050565b6000602082019050919050565b60006135938261353b565b61359d8185613546565b9350836020820285016135af85613557565b8060005b858110156135eb57848403895281516135cc8582613567565b94506135d78361357b565b925060208a019950506001810190506135b3565b50829750879550505050505092915050565b60006101a0830160008301516136166000860182613121565b5060208301516136296020860182613130565b50604083015184820360408601526136418282613198565b9150506060830151848203606086015261365b8282613198565b915050608083015184820360808601526136758282613198565b91505060a083015161368a60a0860182613121565b5060c083015161369d60c086018261350e565b5060e08301516136b060e086018261351d565b506101008301516136c561010086018261352c565b506101208301516136da610120860182613121565b506101408301518482036101408601526136f48282613588565b91505061016083015161370b610160860182613121565b506101808301518482036101808601526137258282613198565b9150508091505092915050565b600061373e83836135fd565b905092915050565b6000602082019050919050565b600061375e826134e2565b61376881856134ed565b93508360208202850161377a856134fe565b8060005b858110156137b657848403895281516137978582613732565b94506137a283613746565b925060208a0199505060018101905061377e565b50829750879550505050505092915050565b600060208201905081810360008301526137e28184613753565b905092915050565b60006020820190506137ff6000830184612d70565b92915050565b6005811061381257600080fd5b50565b60008135905061382481613805565b92915050565b6003811061383757600080fd5b50565b6000813590506138498161382a565b92915050565b600067ffffffffffffffff82111561386a576138696132f6565b5b602082029050602081019050919050565b600080fd5b600061389361388e8461384f565b613356565b905080838252602082019050602084028301858111156138b6576138b561387b565b5b835b818110156138fd57803567ffffffffffffffff8111156138db576138da6132ec565b5b8086016138e889826133f3565b855260208501945050506020810190506138b8565b5050509392505050565b600082601f83011261391c5761391b6132ec565b5b813561392c848260208601613880565b91505092915050565b60008060008060008060008060006101208a8c03121561395857613957612b72565b5b60008a013567ffffffffffffffff81111561397657613975612b77565b5b6139828c828d016133f3565b99505060208a013567ffffffffffffffff8111156139a3576139a2612b77565b5b6139af8c828d016133f3565b98505060408a013567ffffffffffffffff8111156139d0576139cf612b77565b5b6139dc8c828d016133f3565b97505060606139ed8c828d01612c58565b96505060806139fe8c828d01613815565b95505060a0613a0f8c828d0161383a565b94505060c0613a208c828d01612c58565b93505060e08a013567ffffffffffffffff811115613a4157613a40612b77565b5b613a4d8c828d01613907565b9250506101008a013567ffffffffffffffff811115613a6f57613a6e612b77565b5b613a7b8c828d016133f3565b9150509295985092959850929598565b7f4a6f6220646f6573206e6f742065786973740000000000000000000000000000600082015250565b6000613ac1601283612d99565b9150613acc82613a8b565b602082019050919050565b60006020820190508181036000830152613af081613ab4565b9050919050565b7f4e6f7420617574686f72697a656420746f20757064617465207374617475732060008201527f666f722074686973206a6f620000000000000000000000000000000000000000602082015250565b6000613b53602c83612d99565b9150613b5e82613af7565b604082019050919050565b60006020820190508181036000830152613b8281613b46565b9050919050565b7f4e487b7100000000000000000000000000000000000000000000000000000000600052603260045260246000fd5b7f4170706c69636174696f6e206e6f7420666f756e6420666f722074686973206a60008201527f6f62000000000000000000000000000000000000000000000000000000000000602082015250565b6000613c14602283612d99565b9150613c1f82613bb8565b604082019050919050565b60006020820190508181036000830152613c4381613c07565b9050919050565b613c5381613166565b82525050565b6000602082019050613c6e6000830184613c4a565b92915050565b7f4e487b7100000000000000000000000000000000000000000000000000000000600052602260045260246000fd5b60006002820490506001821680613cbb57607f821691505b602082108103613cce57613ccd613c74565b5b50919050565b7f4e6f2066756e647320746f207769746864726177000000000000000000000000600082015250565b6000613d0a601483612d99565b9150613d1582613cd4565b602082019050919050565b60006020820190508181036000830152613d3981613cfd565b9050919050565b600081905092915050565b50565b6000613d5b600083613d40565b9150613d6682613d4b565b600082019050919050565b6000613d7c82613d4e565b9150819050919050565b7f4661696c656420746f2077697468647261772066756e64730000000000000000600082015250565b6000613dbc601883612d99565b9150613dc782613d86565b602082019050919050565b60006020820190508181036000830152613deb81613daf565b9050919050565b7f4e6f7420617574686f72697a656420746f20766965772074686573652061707060008201527f6c69636174696f6e730000000000000000000000000000000000000000000000602082015250565b6000613e4e602983612d99565b9150613e5982613df2565b604082019050919050565b60006020820190508181036000830152613e7d81613e41565b9050919050565b7f4e6f7420617574686f72697a656420746f2076696577206170706c696361746960008201527f6f6e7320666f722074686973206a6f6200000000000000000000000000000000602082015250565b6000613ee0603083612d99565b9150613eeb82613e84565b604082019050919050565b60006020820190508181036000830152613f0f81613ed3565b9050919050565b7f53657276696365206665652063616e6e6f742065786365656420313030250000600082015250565b6000613f4c601e83612d99565b9150613f5782613f16565b602082019050919050565b60006020820190508181036000830152613f7b81613f3f565b9050919050565b7f4a6f62206973206e6f74206f70656e20666f72206170706c69636174696f6e73600082015250565b6000613fb8602083612d99565b9150613fc382613f82565b602082019050919050565b60006020820190508181036000830152613fe781613fab565b9050919050565b7f456d706c6f7965722063616e6e6f74206170706c7920746f207468656972206f60008201527f776e206a6f620000000000000000000000000000000000000000000000000000602082015250565b600061404a602683612d99565b915061405582613fee565b604082019050919050565b600060208201905081810360008301526140798161403d565b9050919050565b60008190508160005260206000209050919050565b60006020601f8301049050919050565b600082821b905092915050565b6000600883026140e27fffffffffffffffffffffffffffffffffffffffffffffffffffffffffffffffff826140a5565b6140ec86836140a5565b95508019841693508086168417925050509392505050565b6000819050919050565b600061412961412461411f84612c37565b614104565b612c37565b9050919050565b6000819050919050565b6141438361410e565b61415761414f82614130565b8484546140b2565b825550505050565b600090565b61416c61415f565b61417781848461413a565b505050565b5b8181101561419b57614190600082614164565b60018101905061417d565b5050565b601f8211156141e0576141b181614080565b6141ba84614095565b810160208510156141c9578190505b6141dd6141d585614095565b83018261417c565b50505b505050565b600082821c905092915050565b6000614203600019846008026141e5565b1980831691505092915050565b600061421c83836141f2565b9150826002028217905092915050565b61423582612d8e565b67ffffffffffffffff81111561424e5761424d6132f6565b5b6142588254613ca3565b61426382828561419f565b600060209050601f8311600181146142965760008415614284578287015190505b61428e8582614210565b8655506142f6565b601f1984166142a486614080565b60005b828110156142cc578489015182556001820191506020850194506020810190506142a7565b868310156142e957848901516142e5601f8916826141f2565b8355505b6001600288020188555050505b505050505050565b60006020820190506143136000830184612e86565b92915050565b7f4e6f7420617574686f72697a6564000000000000000000000000000000000000600082015250565b600061434f600e83612d99565b915061435a82614319565b602082019050919050565b6000602082019050818103600083015261437e81614342565b9050919050565b7f4e487b7100000000000000000000000000000000000000000000000000000000600052601160045260246000fd5b60006143bf82612c37565b91506143ca83612c37565b92508282039050818111156143e2576143e1614385565b5b92915050565b60006143f382612c37565b91507fffffffffffffffffffffffffffffffffffffffffffffffffffffffffffffffff820361442557614424614385565b5b600182019050919050565b600061443b82612c37565b915061444683612c37565b925082820190508082111561445e5761445d614385565b5b92915050565b6000604082019050818103600083015261447e8185612de5565b905061448d6020830184612d70565b9392505050565b60006040820190506144a96000830185612d7f565b6144b66020830184613005565b939250505056fea264697066735822122092df255dea7389caa8f42ae3cdd09623098eb20dcc752ae20cad0dfe2960db7c64736f6c634300081c0033",
  "linkReferences": {},
  "deployedLinkReferences": {}
}